:020000040800F2
:100000003006002001010008371A0008F518000822
:10001000351A00086D010008F51E000800000000F8
:100020000000000000000000000000005B1A000853
:100030005F02000800000000591A00085D1A00085D
:100040001B0100081B0100081B0100081B01000820
:100050001B0100081B0100081B0100081B01000810
:100060001B0100081B0100081B0100081B01000800
:100070001B0100081B0100081B0100081B010008F0
:100080001D020008290200081B0100081B010008CE
:10009000E91E00081B0100081B0100081B010008E5
:1000A0001B0100081B0100081B0100081B010008C0
:1000B0001B0100081B0100081B0100081B010008B0
:1000C0001B0100081B0100081B0100081B010008A0
:1000D0001B0100081B010008951E00081B010008F9
:1000E0001B0100081B0100081B010008DFF80CD0F1
:1000F00000F02AF800480047151F000830060020CD
:100100000648804706480047FEE7FEE7FEE7FEE7B1
:10011000FEE7FEE7FEE7FEE7FEE7FEE7B11A0008AE
:10012000ED000008D2B201E000F8012B491EFBD21D
:1001300070470022F6E710B513460A4604461946F2
:10014000FFF7F0FF204610BD064C074D06E0E068C3
:1001500040F0010394E8070098471034AC42F6D30E
:10016000FFF7C8FF981F0008B81F0008FEE700004F
:1001700000B58BB000200090019002900121039007
:100180000590CDE9060104900E20CDE908106946DE
:10019000064800F0DDF8054800F0D0FB002803D148
:1001A0000221024800F05DF80BB000BD14000020F1
:1001B0002DE9F047824686B0002008270091029082
:1001C000CDE903071E469146044621E0301BC0B22C
:1001D000082801D3049700E00490002541F28838F4
:1001E00002E06D1C454504D8504600F09DF90028FA
:1001F000F7D009EB0402084B6946504600F043F87B
:1002000018B1002006B0BDE8F08704982044C4B2BD
:10021000B442DBD30120F5E73C000020014800F0A8
:1002200025BC0000A8010020014800F01FBC000010
:10023000EC01002030B590F840500124AC40C56B73
:100240006C60046863604368102B036803D0996096
:100250000068C26030BD9A600068C16030BD704700
:10026000704790F82020012A07D0022A05D0416A61
:1002700041F48021416201207047006842690A43CD
:10028000426100207047F0B590F820500468A468DF
:10029000012D05D0022D03D0416A41F4802153E0A5
:1002A00014F0406F01D1E5004BD5C4F30164022C7A
:1002B00003D9416A41F4000146E00125A5401D60D3
:1002C0008D684FF4C0739DB1CE6835434E6845EAE2
:1002D000C605066803EB0417F5514FF4C2750768AD
:1002E00005EB04150E697E51097D012905D009E051
:1002F0000E88CD6845EA4655EBE701684E5946F44D
:1003000080764E511179D2F805504FF4C67641EA05
:100310000525016806EB04168D511178D2F80120ED
:100320004FF4C47541EA0221026805EB04155151EE
:10033000006803EB0411425842F0010242500020D1
:10034000F0BD416A41F4001141620120F0BD00009E
:1003500010B590F820300268012B07D0022B05D091
:10036000416A41F480214162012010BDD2F80002AF
:1003700040F00100C2F80002087D00F01F030120D8
:100380009840D2F81C328343C2F81C32CB69B3B90F
:10039000D2F80C328343C2F80C328C894B6864F378
:1003A0001F434C6902EBC404C4F840320C890B684B
:1003B00064F31F434C6902EBC404C4F84432CB69B4
:1003C000012B16D1D2F80C320343C2F80C320C8840
:1003D0004B6864F31F434C6902EBC404C4F8403219
:1003E0000C89CB6864F31F434C6902EBC404C4F866
:1003F00044328B69002BD2F804320FD053EA000349
:10040000C2F804320B69002BD2F8143208D003432F
:10041000C2F81432096A012904D008E08343EFE7E7
:100420008343F5E7D2F81C120143C2F81C12D2F83C
:10043000000220F00100C2F80002002010BD704749
:1004400030B590F82040012C05D0022C03D0416A31
:1004500041F480215DE00468002955D02469A40797
:1004600054D04FF4D874056804EB01142D5915F0DD
:100470000405956005682D594ED0ED085560056856
:100480002C59C4F34004D4604FF4DA74056804EBCB
:1004900001142D5905F00F05156105682D59C5F397
:1004A0000725956105682C59240C54614FF4DC72C2
:1004B000046802EB0112A4581C700468A458240AB2
:1004C0005C700468A458240C9C700468A258120E36
:1004D000DA704FF4DE72046802EB0112A4581C714A
:1004E0000468A458240A5C710468A458240C9C7104
:1004F0000468A258120EDA71006881B1016941F0F6
:1005000020010161002030BDE468A8E7416A41F4A0
:1005100000114162012030BD6D0D1560AFE7C1686B
:1005200041F02001C160EDE70246002092F8201062
:10053000012901D002290CD111688A68520100D525
:1005400001208A68120100D5401C8968C90000D5C5
:10055000401C70472DE9F05F05460068002446699D
:10056000D0F804908768D0F80CB0D0F810A0D0F87C
:100570001880F10748D0F90714D001218160B8072D
:1005800003D5284600F007FA0CE0780702D54FF4AF
:10059000006407E0380702D54FF4805402E0284693
:1005A00000F0F8F9F80516D529684FF480708860D6
:1005B000B80503D5284600F0F0F90CE0780502D51F
:1005C00044F4005407E0380502D544F4804402E0C6
:1005D000284600F0E1F9F80316D529684FF4803079
:1005E0008860B80303D5284600F0D9F90CE07803F9
:1005F00002D544F4004407E0380302D544F48034C3
:1006000002E0284600F0CAF9300707D55FEACB6060
:1006100004D52968102044F40074C86070074FF0B6
:10062000080707D55FEA0B7004D52868C76028461D
:1006300000F066F9B00706D52868C068800702D0C8
:10064000284600F05FF9700607D55FEACA6004D556
:100650002968102044F480640861B00607D55FEA79
:100660000A7004D528680761284600F063F9F0068F
:1006700006D528680069800702D0284600F05BF99B
:10068000B00308D55FEAC96005D529681020486025
:10069000284600F051F9F00307D55FEA097004D548
:1006A00028684760284600F07BF9300446D55FEAA9
:1006B000497040D5F00504D55FEAC87001D044F018
:1006C0000104B00504D55FEA887001D544F0020446
:1006D000700504D55FEA487001D544F00404300584
:1006E00029D518F0700F26D008F07000402815D0DA
:1006F00006DC102809D020280AD0302816D10AE0BC
:1007000050280ED0602811D10EE044F008040DE00E
:1007100044F010040AE044F0200407E044F04004F0
:1007200004E044F0800401E044F4807428688169A6
:1007300021F070018161296804204860002C05D0F7
:10074000686A204368622846FFF779FEBDE8F09F9B
:1007500070B5040003D094F8200010B104E001202B
:1007600070BD204600F082F82068016821F0020187
:10077000016000F081FB0546052604E000F07CFBEB
:10078000401B0A2811D8206840688007F6D42068EA
:10079000016841F00101016000F06EFB05460BE0CD
:1007A00000F06AFB401B0A2806D9606A40F400305A
:1007B000606284F82060D2E720684068C007EFD00C
:1007C000207E0128206801683DD021F08001016071
:1007D000607E01282068016838D021F04001016066
:1007E000A07E01282068016833D021F0200101603B
:1007F000E07E0128206801682ED041F010010160E0
:10080000207F01282068016829D021F008010160BB
:10081000607F01282068016824D021F00401016074
:10082000D4E902010843D4E9041211430843616882
:10083000491E08432168C86100206062012084F8D5
:100840002000002070BD41F08001C0E741F0400170
:10085000C5E741F02001CAE721F01001CFE741F0E0
:100860000801D4E741F00401D9E7000010B586B0D3
:100870000021009101910291039100681C49884276
:1008800033D11C48C16941F00071C161C16901F0F7
:1008900000710491816941F0080181618069164C01
:1008A00000F0080004904FF48070009069462046E4
:1008B00000F0FEF9601500900220019003200390E3
:1008C0006946204600F0F4F90C48416821F4C04123
:1008D00041F0E06141F48041416000221146142062
:1008E00000F034FB142000F025FB06B010BD000022
:1008F0000064004000100240000C01400000014074
:100900007047000000B5094A016889B091420BD1D7
:1009100007AB6A460021FFF793FD0498C82382B213
:1009200007A9034800F088FF09B000BD006400403B
:1009300068010020704770477047000070B504469A
:1009400090F82000012804D0606A40F40020606222
:1009500018E0022084F820002068016821F00101DD
:10096000016000F089FA05460EE000BF00F084FA4D
:10097000401B0A2808D9606A40F4003060620520F4
:1009800084F82000012070BD20684068C007EDD1C8
:10099000606270BD7047704770477047704770471E
:1009A000704701680A6822F00E020A6001680A684E
:1009B00022F001020A6090F84020C36B012101FA85
:1009C00002F25A6080F82110002180F820100846B9
:1009D0007047000010B590F821100024022903D0C0
:1009E0000421816301243DE001680A6822F00E02BF
:1009F0000A6001680A6822F001020A601A4A016866
:100A0000914201D1012121E0174A1432914201D1D2
:100A100010211BE0144A2832914201D1891515E0BA
:100A2000114A3C32914201D189140FE00E4A5032F2
:100A3000914202D14FF4803108E00B4A6432914276
:100A400002D14FF4801101E04FF08071064A083A5C
:100A50005160012180F82110002180F82010416BA5
:100A600001B18847204610BD080002402DE9F05F23
:100A7000C16B0C6801680B68D0F840C0042202FA10
:100A80000CF2494DDFF824A1494E4A4FDFF828B156
:100A9000DFF828E122422CD05A072AD50A689206AC
:100AA00003D40A6822F004020A600168A94201D155
:100AB000042219E0514501D1402215E0B14202D192
:100AC0004FF4806210E0B94202D14FF480420BE053
:100AD000594502D14FF4802206E0714502D14FF40E
:100AE000800201E04FF080622F4908394A60C16AF4
:100AF0003BE04FF0020808FA0CF818EA040F4FF038
:100B000000094FF0010235D05FEA837832D50B68D7
:100B10009B0605D40B6823F00A030B6080F82120A4
:100B20000168A94201D1022219E0514501D12022D8
:100B300015E0B14202D14FF4007210E0B94202D187
:100B40004FF400520BE0594502D14FF4003206E059
:100B5000714502D14FF4001201E04FF000721249CA
:100B600008394A6080F82090816A00291AD0BDE8CF
:100B7000F05F0847082505FA0CF5254212D01B073F
:100B800010D50B6823F00E030B6090F84010C36B78
:100B900002FA01F15960826380F8212080F82090E8
:100BA000016BE2E7BDE8F09F080002401C00024034
:100BB0003000024044000240580002406C000240F5
:100BC00030B528B308C8134914221944B1FBF2F117
:100BD0008900C16310498163022141771A6843F695
:100BE000F0718A43D0E900142143D0E902452C4337
:100BF000214304692143446921438469214311430A
:100C0000196000214163012242770177084630BD17
:100C1000012030BDF8FFFDBF0000024070B5044662
:100C200090F82000002501280CD0012084F8200035
:100C300094F821600020012E06D084F820000225BF
:100C4000284670BD022070BD022684F82160A06392
:100C50002068066826F0010606602046FFF7EAFADB
:100C6000E06A00282068016802D041F00E0106E029
:100C700021F0040101602068016841F00A0101606F
:100C80002068016841F001010160D9E770B50446B0
:100C900000F0F2F80546601C02D0044800780444D5
:100CA00000F0EAF8401BA042FAD370BD0400002017
:100CB0002DE9F84FDFF890A100220AF1040B144649
:100CC00001274FF00F090BF1040E00BF0B6807FA64
:100CD00004F52B40AB4274D1DFF870C14E68A6EB2F
:100CE0000C0866452BD00DDC032E34D005DC36B362
:100CF000012E19D0022E2FD11BE0112E16D0122E4C
:100D00002AD119E0B8F5881F19D006DCB8F5803F64
:100D100015D0B8F5801F1FD111E0B8F5001F0ED017
:100D2000B8F5041F18D10AE0CA6815E0CA68121D98
:100D300012E0CA6808320FE0CA680C320CE08A6818
:100D40002AB1012A4FF0080203D0456104E00422D1
:100D500002E0056100E00022FF2B01D8064601E019
:100D600000F104064FEA840501D9A5F12005D6F863
:100D700000C009FA05F82CEA080C02FA05F54CEA5D
:100D8000050CC6F800C04D68ED0057D5304DAE6972
:100D900046F00106AE61AD6924F0030605F00105D9
:100DA00000952C4D06EB050CDCF80850A6074FEA21
:100DB000167809FA08F6B543274EB04202D100264C
:100DC00010E03BE0254EB04201D101260AE0244E5E
:100DD000B04201D1022605E0224EB04201D10326E5
:100DE00000E0042606FA08F62E43CCF808604D68A9
:100DF000DAF80060ED03554601D51E4300E09E433E
:100E00002E604D68DBF80060AD035D4601D51E43E2
:100E100000E09E432E604D68DEF80060ED027546EE
:100E200001D51E4300E09E432E604D68AD020E4D7D
:100E30002E6801D51E4300E09E432E60641C102CDA
:100E4000FFF444AFBDE8F88F00040140000011102A
:100E5000001002400000014000080140000C014069
:100E600000100140001401400C0401400AB101616E
:100E700070470904FBE700000148806870470000E4
:100E800004000020024881680278114481607047A4
:100E900004000020074810B5016841F0100101600E
:100EA000032000F073F8002000F006F800F024F8AA
:100EB000002010BD0020024070B50D4D04464FF4D7
:100EC0007A712878B1FBF0F00A490968B1FBF0F0BB
:100ED00000F0FCFA48B9102C07D200222146501E1F
:100EE00000F034F800206C6070BD012070BD00007F
:100EF00004000020100000200C4808B5816941F072
:100F000001018161816901F001010091C16941F034
:100F10008051C161C06900F0805000900448416870
:100F200021F0E06141F00071416008BD0010024015
:100F30000000014000F01F020121914040098000A3
:100F400000F1E020C0F8001170470000F0B40E4B33
:100F50001B680C46C3F30223C3F10705042D00D917
:100F60000425191D072901D2002300E0DB1E0126FC
:100F700006FA05F1491E214099409E40761E164012
:100F80003143F0BC00F058BD0CED00E0064900F024
:100F9000070208684FF6FF03184040EA0220034AA0
:100FA00010430860704700000CED00E00000FA05F7
:100FB0002DE9F047DFF8548105460E46D8F80000C9
:100FC00000F00700B0420CD2D8F8001021F0070161
:100FD0003143C8F80010D8F8000000F00700B04214
:100FE0006FD128684A4C810712D5400703D5606845
:100FF00040F4E06060602878000703D5606840F442
:10100000605060606068A96820F0F000084360608C
:101010002878C00744D06868012816D021680228C3
:1010200016D0890700294CDA616821F003010143D9
:101030006160FFF721FF6968074641F288300129A6
:101040000ED00229814618D026E021688903E9E7FD
:101050008901E7E7FFF710FFC11B494501D918E0F7
:1010600081466068C0F381000128F3D118E000BF19
:10107000FFF702FFC11B49450BD86068C0F3810030
:101080000228F5D10CE000BFFFF7F6FEC11B494571
:1010900002D90320BDE8F087606810F00C0FF3D18F
:1010A000D8F80010404601F00701B1420BD90168A1
:1010B00021F0070131430160006800F00700B042F1
:1010C00001D00120E6E72878400705D56068E96887
:1010D00020F4E060084360602878000706D5606867
:1010E000296920F4605040EAC100606000F036F8E1
:1010F0006168084AC1F30311515CC84006490860A1
:101100000020FFF7D9FE0020C4E7000000200240C5
:1011100000100240801F000810000020044805490C
:1011200000684968044AC1F30221515CC840704715
:101130001000002000100240901F000804480549DC
:1011400000684968044AC1F3C221515CC840704735
:101150001000002000100240901F000812A185B06E
:101160000FC98DE80F0014A0144A0068049051685C
:10117000134801F00C03042B10D0082B0ED1C1F33F
:101180008343C9031DF803000AD5516804AAC1F3BB
:101190004041515C0A4A5043B0FBF1F005B0704742
:1011A00008494843FAE70000020304050607080956
:1011B0000A0B0C0D0E0F101001020000001002406F
:1011C00000127A0000093D002DE9F84F044600782E
:1011D000B94DC00748D06868C0F38100012807D026
:1011E0006868C0F38100022809D16868C00306D589
:1011F0002868800338D5606800286FD034E06068C4
:10120000B0F5803F0BD010B1B0F5A02F11D02868F9
:1012100020F480302860286820F4802002E02868CC
:1012200040F480302860606888B1FFF725FE0646EC
:1012300009E0286840F480202860F0E7FFF71CFEF2
:10124000801B642875D828688003F7D50CE0FFF769
:1012500013FE064605E000BFFFF70EFE801B642864
:10126000F0D828688003F7D42078944E80074FF098
:1012700001094FF000083BD5686810F00C0F07D04B
:101280006868C0F38100022809D16868C00306D4E9
:101290002868800714D5206901281FD110E0206933
:1012A000B0B1C6F80090FFF7E7FD074605E000BFC4
:1012B000FFF7E2FDC01B0228C4D828688007F7D5D5
:1012C0002868616920F0F80040EAC10028600FE05A
:1012D000C6F80080FFF7D0FD074606E0E9E000BF52
:1012E000FFF7CAFDC01B022823D828688007F7D45F
:1012F000207800072CD57248A169D9B1C0F80090B8
:10130000FFF7BAFD074604E0FFF7B6FDC01B022851
:101310000FD8686A8007F7D56A484FF4FA51006819
:10132000B0FBF1F0009000BF0098411E0091FAD28E
:101330000EE080E0C0F80080FFF79EFD074604E065
:10134000FFF79AFDC01B022875D8686A8007F7D49A
:101350002078400760D5E8690027C00008D4E86914
:1013600040F08050E861E869012700F0805000906B
:1013700055480168C90513D40168834641F480715A
:101380000160FFF779FD824606E000BFFFF774FDBC
:10139000A0EB0A0064284ED8DBF80000C005F5D5A4
:1013A000E06801280AD008B1052813D0286A20F087
:1013B00001002862286A20F0040002E0286A40F058
:1013C00001002862E06841F2883B98B1FFF754FDC4
:1013D00082460BE0286A40F004002862EEE700BF76
:1013E000FFF74AFDA0EB0A0159455AD8286A800741
:1013F000F6D50CE0FFF740FD824605E0FFF73CFD27
:10140000A0EB0A0159454CD8286A8007F6D41FB1D1
:10141000E86920F08050E861E06988B36968C1F349
:101420008101022945D00228C6F8608004D0FFF768
:1014300023FD044638E034E0FFF71EFD074604E0D4
:10144000FFF71AFDC01B02282BD828688001F7D4AB
:10145000206AB0F5803F05D16868A16820F40030AB
:1014600008436860D4E908010843696821F47411ED
:1014700008436860C6F86090FFF7FEFC044606E08B
:1014800015E000BFFFF7F8FC001B022809D8286808
:101490008001F7D50BE000BFFFF7EEFC001B022830
:1014A00002D90320BDE8F88F28688001F4D4002019
:1014B000F8E70120F6E70000001002400000424279
:1014C00080044242100000200070004010B5401E11
:1014D000B0F1807F01D3012010BD4FF0E0246061A6
:1014E0000F21601700F0A8FA0020A06107202061FA
:1014F000002010BD10B504460068416994F83920F9
:10150000C1F3C011212A0BD151B1416921F08001F1
:101510004161206B08B1FFF744FA204600F04AFB16
:101520002068416994F83A20C1F38011222A0BD136
:1015300051B1416921F040014161606B08B1FFF791
:1015400030FA204600F028FB002010BD7047000054
:1015500070B5026804461068D168536910F00F0F27
:1015600051D003F0010501F4907635435DD0C207F8
:1015700005D0CA0503D5E26B42F00102E2634207DF
:1015800005D5DA0703D0E26B42F00202E26382077C
:1015900005D5DA0703D0E26B42F00402E2630207EA
:1015A00005D5DA0703D0E26B42F00802E263E26B92
:1015B000002A34D0800604D5880602D5204600F0E3
:1015C00002FB20684069E16BC0F3801001F0080164
:1015D0000143204624D000F0DFFA20684169490623
:1015E0001AD5416921F040014161606BA0B11B49EE
:1015F0004163606BFFF7EEF9002810D0606B416B20
:10160000BDE87040084783060FD58B060DD52046F0
:10161000BDE8704000F0D7BA2046FFF797FF70BDD5
:10162000FFF794FF0020E06370BD030606D50B06AC
:1016300004D52046BDE8704000F0C8BB4006F3D595
:101640004806F1D5D168204621F04001D160202123
:1016500084F8391000F04DF970BD0000F91A000847
:1016600070B5040004D094F83900002510B106E0EC
:10167000012070BD84F83850204600F023F8242063
:1016800084F839002068C16821F40051C160204607
:1016900000F0E4FA2068016921F4904101612068BA
:1016A000416921F02A0141612068C16841F400517B
:1016B000C160E563202084F8390084F83A000020F6
:1016C00070BD0000F0B585B000240646009401947A
:1016D0000294039400682C49884253D12B48C16975
:1016E00041F40031C161C16901F4003104918169A3
:1016F00041F0040181618069254D00F004000490EF
:10170000042000900220019003200390694628469F
:10171000FFF7CEFA0820CDE9000469462846029476
:10172000FFF7C6FA1C4D1B488027C5E90004C5E930
:1017300002472C616C61AC612846EC61FFF740FA0E
:1017400008B1FEF78DFD75636E62134D1148443587
:10175000143001C5102091C50F4845F81049443098
:101760006C61AC61EC61FFF72BFA08B1FEF778FD14
:1017700035630022114626206E62FFF7E7FB262024
:10178000FFF7D8FB05B0F0BD004400400010024058
:10179000000801406C000240A8010020F8B5044692
:1017A00090F83A0020283CD1C1B3BAB394F838007D
:1017B000012836D0012084F83800A162A2850025D6
:1017C000E563222084F83A00636B17489862636BE4
:1017D0001648D862636B16481863606B13464563FE
:1017E0000846666B216802463046091DFFF716FA67
:1017F000206801684168009184F83850C16841F45C
:101800008071C1602068416941F001014161206837
:10181000416941F0400141610020F8BDFFE701202E
:10182000FBE70220F9E70000531B00088F1B0008AC
:10183000091B0008704770472DE9F843044690F8EB
:1018400039001F4616460D46202850D1A5B19EB13D
:1018500094F8380001284AD0012084F838004FF06D
:101860000008C4F83C80212084F83900FFF704FB0D
:10187000A6848146E68426E00120BDE8F883E08C5A
:10188000401EE084A0684B46B0F5805F4FF0000238
:101890004FF080012046009703D000F0C8FAE8B965
:1018A0000DE000F0C4FAC8B928882168C0F3080028
:1018B0004860206908B16D1C05E0AD1C03E021689B
:1018C00015F8010B4860E08C0028D8D14B46002267
:1018D00040212046009700F0AAFA08B10320CCE787
:1018E000202084F8390084F838800020C5E70220E1
:1018F000C3E77047FEE700000F4810B50D490160CF
:101900001821416000214FF400328160C0E90312C8
:10191000D2004261017641768176C17601774177C6
:10192000FEF716FF002803D0BDE81040FEF798BC74
:1019300010BD000000640040140000200D4808B5F0
:10194000416941F0010141614069002200F001005C
:10195000009011461020FFF7F9FA1020FFF7EAFA7D
:10196000002211461120FFF7F1FABDE808401120CE
:10197000FFF7E0BA0010024070B586B000241848A6
:101980000094019402940394816941F020018161E3
:10199000816901F020010491816941F004018161B4
:1019A000816901F004010491816941F008018161BC
:1019B00080690C4E00F008004FF40065049000228E
:1019C00029463046FFF752FA01200095CDE901047F
:1019D0000320039069463046FFF76AF906B070BDF0
:1019E000001002400008014010B5114C0F480C21B6
:1019F00020604FF4E13060600020A060E060C4E946
:101A00000401A061E0612046FFF72AFE08B1FEF75D
:101A100027FC2068C16841F01001C1600449C82258
:101A2000BDE81040C8390248FFF7B8BE0044004086
:101A300068010020FEE770470907090E002806DA52
:101A400000F00F0000F1E02080F8141D704700F155
:101A5000E02080F80014704770477047FFF712BA13
:101A600030B58FB028216846FEF763FB14210AA821
:101A7000FEF75FFB01210804CDE900100024029469
:101A800002250491CDE907504FF4E0100990684613
:101A9000FFF79AFB0F20CDE90A056802CDE90C405B
:101AA00002210AA80E94FFF783FA0FB030BD0000A0
:101AB0000D48016841F00101016041680B4A114085
:101AC000416001680A4A11400160016821F48021E7
:101AD0000160416821F4FE0141604FF41F01816003
:101AE0000449C00308607047001002400000FFF87E
:101AF000FFFFF6FE08ED00E010B5406A0021C18549
:101B0000C184FFF723FD10BD70B5446A20684069A9
:101B100094F83910C0F3C0100025212904D118B160
:101B2000E584204600F046F82068406994F83A10B1
:101B3000C0F38010222904D118B1E585204600F0B9
:101B40002BF8E06B40F01000E0632046FFF7FEFC4E
:101B500070BD10B50146406A09680968890613D44A
:101B60000021C1850168CA6822F48072CA600168D8
:101B70004A6922F001024A6101684A6922F0400282
:101B80004A61202180F83A10FFF754FE10BD10B5CD
:101B9000406AFFF750FE10BD0168CA6822F49072D7
:101BA000CA6001684A6922F001024A61202180F876
:101BB0003A1070470168CA6822F0C002CA6020214A
:101BC00080F83910704710B590F83A10222901D0EA
:101BD000022010BD8168B1F5805F11D00169002934
:101BE00001681FD0496801F07F03816A4A1C826244
:101BF0000B70C18D491E0904090CC18518D02BE05A
:101C00000269816A002A0268526805D0D2B20A804D
:101C1000816A491C8162ECE7C2F308020A80816A8A
:101C2000891CF7E74A68816A4B1C83620A70E0E707
:101C30000168CA6822F02002CA600168CA6822F4FA
:101C40008072CA6001684A6922F001024A6120215B
:101C500080F83A10FFF7EEFD002010BD2DE9F041AD
:101C6000044600680169E26821F4405111430161B2
:101C70002169A0680843616908432168CA6841F284
:101C80000C639A430243CA6020684169A26921F447
:101C90004071114341614C492068642532268842D5
:101CA0003CD1FFF74BFA00EBC00101EB001061687B
:101CB0008900B0FBF1F7FFF741FA00EBC00101EB3F
:101CC00000106168B0468900B0FBF1F0B0FBF5F0A0
:101CD0006FF01801484307EB800106EB0110B0FBE1
:101CE000F5F000F0F006FFF729FA00EBC00101EB78
:101CF000001061688900B0FBF1F0B0FBF5F006EB75
:101D00000016FFF71BFA00EBC00101EB0010616841
:101D10008900B0FBF1F7FFF711FA3BE0FFF7FEF99E
:101D200000EBC00101EB001061688900B0FBF1F726
:101D3000FFF7F4F900EBC00101EB00106168B04659
:101D40008900B0FBF1F0B0FBF5F06FF018014843EB
:101D500007EB800106EB0110B0FBF5F000F0F00698
:101D6000FFF7DCF900EBC00101EB001061688900AE
:101D7000B0FBF1F0B0FBF5F006EB0016FFF7CEF983
:101D800000EBC00101EB001061688900B0FBF1F7C6
:101D9000FFF7C4F900EBC00101EB00106168890096
:101DA000B0FBF1F0B0FBF5F06FF01801484307EB22
:101DB000800108EB0110B0FBF5F0216800F00F0086
:101DC00030448860BDE8F0810038014090F8391057
:101DD000212901D0022070478168B1F5805F016A36
:101DE0000BD04A1C0262026809785160C18C491EFE
:101DF0000904090CC1840ED017E009880268C1F3F8
:101E00000801516001690029016A02D0491C016280
:101E1000ECE7891CFBE70168CA6822F08002CA600F
:101E20000068C16841F04001C160002070472DE9A1
:101E3000F041984617460E460446069D1DE0681C74
:101E40001BD02DB1FFF718F8A0EB0800A84214D959
:101E50002068C16821F4D071C1602068416921F017
:101E600001014161202084F8390084F83A00002003
:101E700084F838000320BDE8F0812068006836EA65
:101E8000000004D00020B842D9D00020F3E70120A0
:101E9000F9E7000008B51048FFF75AFB0E48006844
:101EA0000168C1F3001189B10168416800910168BE
:101EB00040680948FFF71EFB084800684068084969
:101EC000C0F1C8000880074901200870BDE808403B
:101ED0000148FFF73DBB000068010020A801002079
:101EE00002000020000000200148FEF733BB000084
:101EF00014000020FEE702E008C8121F08C1002AF3
:101F0000FAD170477047002001E001C1121F002A7A
:101F1000FBD17047FEF7BEFFFFF7A2FDFFF72CFDD8
:101F2000FFF70CFDFFF7E8FCFFF75EFDFEF720F979
:101F30000A20FEF7ABFE0D4E0D4C002540F2FF7758
:101F400030780128FCD123780A4A39460A48FEF73E
:101F50002FF921880748FEF7ECF825803570C82254
:101F600004490648FFF71AFCEAE7000000000020D9
:101F700002000020A00000201400002068010020C2
:101F80000000000000000000010203040607080929
:101F90000000000001020304B81F00080000002038
:101FA00014000000F61E0008CC1F000814000020DA
:101FB0001C060000061F00080000000001000000D1
:0C1FC000100000000000000000A24A0415
:04000005080000ED02
:00000001FF
